:060000000A128A110C280F
:10000800FE00030EF0000A08F1000A128A11A32864
:100018000A128A110F28F401F50183010A128A11C4
:1000280015280A128A116C200A128A1183120313E6
:1000380006181F28202843280130F2007208850777
:100048000508F200F3017208F4007308F50074085B
:10005800303EF40075080318013E003EF500A33059
:10006800F3005530F200F20B3728F30B37288312D0
:1000780003130C1E402841284328740899000619C8
:10008800462847281A28013085020508F200F3019E
:100098007208F4007308F5007408303EF40075081F
:1000A8000318013E003EF500A330F3005530F2007E
:1000B800F20B5C28F30B5C28831203130C1E6528D3
:1000C80066281A28740899001A280A128A110C2816
:1000D80083160317880189018316031385010930E4
:1000E8008600880183120313880185018316031390
:1000F8000F088F3940388F000F14181218158316FF
:100108000317871519308316031399009A01831270
:1001180003139817181318168316031398168113C8
:10012800151495148B150B1016141615831203133A
:100138008C12831603138C160B178B1708000B1CD5
:10014800A628A728AC2883120313060886000B10DC
:10015800831203138C1EB128B228B4281A08880009
:0E01680071088A00700E8300FE0E7E0E0900E4
:08400000FF3FFF3FFF3FFF3FC0
:04400E00D420FF3F7C
:00000001FF
